:100000000010002081030000B3120000B3120000B2
:10001000B3120000B3120000B3120000B3120000CC
:10002000B3120000B3120000B3120000B3120000BC
:10003000B3120000B3120000B3120000B3120000AC
:10004000B3120000B3120000B3120000B31200009C
:10005000B3120000B3120000B3120000B31200008C
:10006000B3120000B3120000B3120000B31200007C
:10007000B3120000B3120000B3120000B31200006C
:10008000B3120000B3120000B3120000B31200005C
:10009000B3120000B3120000B3120000B31200004C
:1000A000B3120000B3120000B3120000B31200003C
:1000B000B3120000B3120000B3120000B31200002C
:1000C000B3120000B3120000B3120000B31200001C
:1000D000B3120000B3120000B3120000B31200000C
:1000E000B3120000B3120000B3120000B3120000FC
:1000F000B3120000B3120000B3120000B3120000EC
:10010000B3120000B3120000B3120000B3120000DB
:10011000B3120000B3120000B3120000B3120000CB
:10012000B3120000B3120000B3120000B3120000BB
:10013000B3120000B3120000B3120000B3120000AB
:100140000348044B834202D0034B03B11847704766
:10015000101200201012002000000000064B07497A
:10016000C91A891048BF0131491003D0044B0BB1A3
:1001700001481847704700BF1012002010120020DD
:100180000000000010B5064C237843B9FFF7D8FFF4
:10019000044B13B10448AFF300800123237010BD5A
:1001A0004C12002000000000A014000008B5054B10
:1001B0001BB105490548AFF30080BDE80840FFF7D3
:1001C000CDBF00BF0000000010120020A0140000EE
:1001D000A3F5803A704700BF174B002B08BF134BA5
:1001E0009D46FFF7F5FF00218B460F461348144A42
:1001F000121A01F0B2F80E4B002B00D098470D4BAD
:10020000002B00D098470020002104000D000D486D
:10021000002802D00C48AFF3008001F019F820004C
:10022000290001F039F801F001F800BF00000800D2
:10023000000000000000000000100020101200204C
:1002400050120020000000000000000030B5014402
:100250004FF0FF30084D0A44914201D1C04330BDF8
:1002600011F8013B5840082340F300042C40013BA7
:1002700084EA5000F8D1EFE72083B8ED10B5234CA5
:1002800000F08CFC00F012FE236F23F0070343F014
:100290000303236701F036F81D4B00209B6A9B0780
:1002A0005EBF01221B4B9A62D4F8203123F0030376
:1002B00043F00203C4F82031D4F8243123F00703BB
:1002C00043F00203C4F82431D4F8403123F003038F
:1002D00043F00103C4F84031D4F8603123F0030344
:1002E00043F00103C4F86031D4F8403223F0030333
:1002F00043F00103C4F84032D4F8003223F007037E
:1003000043F00103C4F8003210BD00BF008000506C
:1003100000C0005000E0005008B500F005FF0128C3
:100320000ED10D4B04205A6E4FF480230B4952031B
:1003300058BF0B4A4B6601F51041086258BF53661F
:1003400000F056FF00F0F8FE00F018FFFFF796FFF0
:10035000BDE8084000F000BF008000500090005051
:1003600000A000500348044A0449121A921000F0F9
:10037000A1BF00BFD4170000D41700005012002006
:1003800008B500F02FF8FFF7EDFF124B12498B4232
:1003900012D30020114B12498B4218D3FFF71CFFD8
:1003A000186850F82240586840F822400132986896
:1003B0008242F5D30C33EAE70022F8E71C6844F8E0
:1003C000220001325C68A242F8D30833E4E700223D
:1003D000F8E700BFB8150000C4150000C415000000
:1003E000C415000010B54FF400414FF0FF30124B20
:1003F000124A9A60D3F8882042F47002C3F8882029
:100400000F4A916601F1884101F5005210664FF6DE
:10041000DF7050660220C3F8D000BFF34F8FBFF3E8
:100420006F8F08244FF440330648C0F88041D360F2
:1004300004600B6110BD00BF00ED00E00000000093
:100440000090005000E100E0014B1868704700BFC9
:1004500004100020084B1B6F03F00703022B04D08D
:10046000032B05D0012B05D0FEE7044B186870471D
:10047000034BFBE703487047008000500410002046
:100480000C100020002D310108B5FFF7E3FF054BEC
:100490001B6FC3F303330133B0FBF3F0024B18605F
:1004A00008BD00BF008000500010002000487047C9
:1004B00000B4C404014B1868704700BF0C10002042
:1004C000054B1860054B1B6F03F00703032B01D18D
:1004D000FFF7DABF704700BF0C100020008000500B
:1004E00000487047002D3101014B1868704700BF6C
:1004F00008100020044BD3F88420D206FBD4D3F894
:100500008400C0F3811070470040005038B5104B94
:100510000546D3F820310C4603F00303022B0BD021
:10052000032B0DD0012B0FD1FFF78EFF052305B153
:10053000286004B1236038BDFFF7BCFF0323F6E752
:10054000FFF7CEFF0223F2E701230020EFE700BF11
:1005500000800050F7B50027114B0197D3F8804178
:10056000064604F00304012C0D4608D0022C12D0DC
:1005700041F2B1310B4800F0B0FE3C4604E0394690
:1005800001A8FFF7C3FF0F240EB1019B336005B133
:100590002C6003B0F0BDFFF7A3FF0190F4E700BFAC
:1005A00000800050E013000038B51A4B0546D3F820
:1005B00024010C4600F00700062821D8DFE800F0EF
:1005C000280410181C0C1400FFF73EFF052305B18A
:1005D000286004B1236038BDFFF736FF0623F6E735
:1005E000FFF768FF0323F2E7FFF764FF0423EEE75A
:1005F000FFF776FF0223EAE700F067FE0723E6E74E
:10060000054840F6A87100F068FE00231846DEE7B2
:100610000123DCE700800050E013000038B5104BE8
:100620000546D3F840310C4603F00303022B0BD0F0
:10063000032B0DD0012B0FD100F049FE092305B18A
:10064000286004B1236038BDFFF74EFF0823F6E7AA
:1006500000F040FE0B23F2E701230020EFE700BF8C
:100660000080005038B5164B0546D3F800020C4602
:1006700000F00700042819D8DFE800F020030B0F72
:10068000130000F024FE092305B1286004B12360A3
:1006900038BDFFF729FF0823F6E700F01BFE0B2308
:1006A000F2E7FFF7F1FE0E23800AEDE7054841F27D
:1006B0006F4100F012FE00231846E5E70123E3E74F
:1006C00000800050E013000038B5124B0546D3F807
:1006D00040320C4603F00303022B0BD0032B0DD04A
:1006E000012B0FD100F0F3FD092305B1286004B1FF
:1006F000236038BDFFF7F8FE0823F6E700F0EAFDB7
:100700000B23F2E7044841F2FA3100F0E6FD002342
:100710001846EAE700800050E013000038B5104B9F
:100720000546D3F860310C4603F00303022B0BD0CF
:10073000032B0DD0012B0FD100F0C9FD092305B10A
:10074000286004B1236038BDFFF7CEFE0823F6E72A
:1007500000F0C0FD0B23F2E701230020EFE700BF0C
:100760000080005010B40F4C0B46D4F8204204F027
:100770000304012C0ED0022C10D008B1002101601E
:100780000BB100221A6040F6D27107485DF8044BA5
:1007900000F0A3BD5DF8044BFFF7B8BE5DF8044B55
:1007A000FFF73CBF00800050E013000010B5B0F52B
:1007B000207F34D009D8B0F5007F2AD003D898B173
:1007C000B0F5C07F10D0002421E0B0F5607FFAD1F1
:1007D000154BD3F88030C3F301149B0617D5032CB7
:1007E00015D040F295210FE00F4B1C6F230B13F037
:1007F0000E0FC4F303340AD0072C08D00F2C06D0F8
:10080000032C04D040F28521084800F066FD601CEE
:1008100010BD054BD3F89040C4F30464F7E7024BD6
:100820001C6FC4F38024F2E700800050E013000046
:1008300010B54FF400320E4B04469A660020FFF7C5
:10084000B5FF604341F671320A4C0B4BA04294BF96
:1008500000200120D969DA639A6822F4401242EA42
:1008600000529A60CA0344BF0022DA6310BD00BF81
:1008700000900050005A62020000035030B585B06D
:10088000002380280446019374D02AD8002877D00A
:10089000A0F12004412C32D8412C30D8DFE804F0FC
:1008A00070737073888888887373923FA8653F73EC
:1008B00073732F2F2F2F2F2F8D57737373B2AD7329
:1008C0002F2F2F2F2F2F2F2F2F2F2F2F2F702F70B6
:1008D0007070882F2F2F2F2F2F2F2F2F2F2F2F2F4D
:1008E0007070B0F5806F63D024D8B0F5007F55D01C
:1008F0000BD8B0F5807F6AD0B0F5C07F40D040F211
:100900009441434800F0E9FC37E0B0F5607F45D002
:10091000F5D8B0F5207F36D0B0F5407FEFD1FFF7A6
:10092000B3FD04464FF42070FFF740FFB4FBF0F432
:10093000640831E0B0F5C06F5AD00DD8B0F5A06FA3
:100940003BD0B0F5B06F3DD0B0F5906FD7D100215E
:1009500001A8FFF729FE10E0B0F5E06F4DD0B0F52B
:10096000F06F4FD0B0F5D06FC9D1002101A8FFF7CB
:1009700079FE02E0FFF76EFD0190019805B030BDF1
:10098000FFF782FDF8E7FFF77FFD04464FF4207084
:10099000FFF70CFFB4FBF0F40194EEE7FFF75AFD0C
:1009A00005462046FFF702FFB5FBF0F50195E4E7A9
:1009B000002101A8FFF7AAFDDFE7002101A8FFF74A
:1009C000D1FEDAE7002101A8FFF7C4FDD5E70293C5
:1009D0004FF0E0231B695B0705D5FFF755FD02903B
:1009E000029B0193C9E703A902A8FFF717FEF7E7E7
:1009F000002101A8FFF712FEBFE7002101A8FFF7C1
:100A000063FEBAE7002101A8FFF788FEB5E700BF43
:100A1000E013000008B58020FFF730FF034B984239
:100A20009EBF4FF48032024B1A6708BD005A620223
:100A300000A000501FB50023B0F5807F01937FD048
:100A400027D8382800F09C800BD82438092810D8E3
:100A500009280ED8DFE800F06F6F6F6F0D0D670D7E
:100A60003685522867D007D83D283AD03E2800F076
:100A70008C8040F2795152E08028FAD1454B1B6FAF
:100A800003F00703013B032B47D8DFE803F04441A1
:100A90003F75B0F5D06F64D019D8B0F5A06F6FD0A6
:100AA0000AD8B0F5806F46D0B0F5906FE1D1002044
:100AB00001A9FFF779FD3AE0B0F5B06F33D0B0F59A
:100AC000C06FD6D1002001A9FFF7A8FD2FE0B0F537
:100AD000006FECD00AD8B0F5E06F56D0B0F5F06FEB
:100AE000C7D1002001A9FFF719FE20E0B0F5086F7B
:100AF000BFD1284BD3F8003103F00303022B35D0CC
:100B0000032B37D0012B39D1FFF7D4FC032300E0AE
:100B1000052301930BE00223FBE740F2C6411E4888
:100B200000F0DBFB03E0002001A9FFF713FD0198B3
:100B300005B05DF804FB002001A9FFF7E7FCF6E72C
:100B400002934FF0E0231B695B0705D5FFF79CFC80
:100B50000C230393039BDCE703A902A8FFF75EFDC8
:100B6000F8E7002001A9FFF77DFDE0E7FFF7BCFCF7
:100B70000823CEE700F0A9FB0723CAE70123C8E753
:100B8000002001A9FFF7EEFDD1E7002001A9FFF742
:100B90009BFDCCE700800050E01300004FF40022E2
:100BA000034B5A66012203F580439A62704700BFE7
:100BB00000900050F8B5036804460F2B04D940F6A6
:100BC0006D316C4800F089FB63680F2B04D94FF43A
:100BD0003761684800F081FBA3680F2B04D940F609
:100BE0007331644800F079FB237B0F2B04D940F666
:100BF0007631604800F071FB637B0F2B04D940F61F
:100C000079315C4800F069FBA37B3F2B04D940F6A7
:100C10007C31584800F061FBE37B3F2B04D940F660
:100C20007F31544800F059FB2369032B04D940F667
:100C30008231504800F051FB6369032B04D940F620
:100C400085314C4800F049FBE369012B04D940F69B
:100C50008831484800F041FB8020FFF7EBFE032875
:100C600000F087804FF40022434B02215A6645F67C
:100C70000E03424AC2F88030414B9962012103F5CC
:100C800080539962936DD903FCD4D4E900131B05FA
:100C900043EA0163E17B94F820500B43217BE77E1C
:100CA00043EA0143617B6D0143EA0133A17B43EADF
:100CB000811313619169D4E904031B0643EA80633D
:100CC00001F000410B43A17E94F823000B43217EE9
:100CD00043EA0143617E43EA01239361136AE669B3
:100CE00023F00D0394F8221043EA8703002E2DD140
:100CF0001362966A94F8213045EA031326F033050F
:100D00002B4343F0010393621E4D1C4B9A6D35EA51
:100D10000202FBD102221A4DAA621A659A6D520094
:100D2000FCD41A69A56822F4700242EA05521A61DD
:100D30004FF00042124B9A6119B9022203F5805319
:100D40009A6278B90122104B9A620BE0334343F068
:100D500008031362936A23F0330303432B4343EAEC
:100D60004103936294F824301BB1044B074AC3F843
:100D70008020F8BDE01300000090005000C000503B
:100D800000D000500300014000E00050F1A7FFFF39
:100D9000014B93F9000070474D120020014B188061
:100DA000704700BF1010002010B5B0F5207F65D04F
:100DB0000ED8B0F5007F4FD003D800B3B0F5C07F98
:100DC0001DD040F21231BDE81040344800F085BA21
:100DD000B0F5607FF5D14C1E012C06D9042904D052
:100DE0004FF43D712D4800F078FA2D4AD2F880304A
:100DF00023F0300343EA0413C2F8803010BD4C1EC8
:100E0000012C0AD9102903D8264BCB40DB0704D488
:100E100040F2C721214800F060FA00F060FA00F0CB
:100E20006CFA4FF48031204B1D4A1967136F23F47D
:100E3000704343EA04331367FFF726FB0446FFF7CA
:100E400059FBC0F10201204600F051FA00F03EF8D3
:100E5000BDE81040FFF7DEBD4C1E1F2C04D940F248
:100E600006310E4800F039FA0D4AD2F8903023F0DE
:100E7000F85343EA0463C2F89030BFE74C1E012CDC
:100E800004D94FF44371054800F027FA044A136F60
:100E900023F4806343EA84231367AFE7E013000081
:100EA00000800050100101000090005008B50121A1
:100EB000022000F027F800F012FA00F01EFA4FF4BA
:100EC0008032014B1A6708BD0090005008B54FF4FE
:100ED000C070FFF7D3FCBDE808400449884294BFC6
:100EE000012102214FF42070FFF75EBF80F0FA026B
:100EF000034A0179D36E23F030030B43D366704766
:100F000000400050F8B50446244BD3F88420D006A6
:100F1000FBD4D3F88430C3F381139C423CD0FFF759
:100F200099FA012C05460BD11D4B984204D940F289
:100F300081711C4800F0D1F90121284600F0D7F951
:100F400000F0F5F94FF00072174B07465A6620463D
:100F500000F0F4F94FF48063104E621E9340336743
:100F6000736E9A0103D4D6F884309B060AD53846AE
:100F700000F0E1F9022C0FD12846BDE8F84000212D
:100F800000F0B5B9D6F884309906E9D540F28F71F2
:100F9000044800F0A2F9E3E7F8BD00BF00400050AC
:100FA000005A62020F1400000060005010B50C4699
:100FB00008B9FFF74FFA074B21461B783BB1064BA8
:100FC000984204D80120BDE81040FFF79BBF0220E3
:100FD000F9E700BF4E120020005A620238B54FF008
:100FE0000042264B26495A6601224A604AF6CD3114
:100FF00003F50B235D6C1964154030BB9968C90774
:101000000BD4002401221F4B5A6015B11E4B1F4AFE
:101010001A6400F094F9204638BD1A498A601C4AC7
:10102000D96ACC0705D4904201D10724EAE7013000
:10103000F6E79042E5D1F8E70132DC6A14F00804E3
:1010400006D08A42F8D10724DFE700221049F4E7EE
:101050008A42F8D020220B4B0B495A620122A3F599
:1010600080539A6023460A4A486A800603D4934212
:10107000E9D00133F8E79342C7D1E4E7009000508C
:101080000050095000600950004009503254FFFFE1
:1010900040420F0038B54FF00042174B174C5A66CC
:1010A000012203F50C235A604AF6CD33656C2364A4
:1010B000437893401343124AD363C3788178A2687C
:1010C0009B0043EA011322F074021343A3600279E8
:1010D000837943EA022323614279C37943EA0223F5
:1010E00063610078FFF77AFFEB0744BF054B236489
:1010F00000F025F9012038BD009000500040095053
:10110000004000503254FFFF4FF40032054B9A6606
:1011100041F6713203F51C33DA63012203F5005303
:10112000DA60704700900050024B1868C0F3074027
:10113000704700BF0080E00F07B56B46054A106896
:10114000516803C36846FFF7A5FF002003B05DF8B0
:1011500004FB00BF6D14000013B50024064A684666
:10116000536F43F00103536700948DF80440FFF779
:10117000BFFE204602B010BD0040005030B58BB01D
:101180006C46184D0FCD0FC40FCD0FC495E803006A
:1011900084E80300144BD3F84C2112031DD5A3F5AA
:1011A000FE431C884FF6FF739C4208BF8C248DF8C9
:1011B0001940FFF7EDFD204480F308008DF818007A
:1011C0000A48FFF77DF96846FFF7F4FC4FF4FA7020
:1011D000FFF7E4FD00200BB030BDD3F85041E4B27E
:1011E000E5E700BF781400000080E00F00F049023E
:1011F00010B56FF0040350210A480B4C13F0800F18
:1012000003F1010207D12344402A83F80013134657
:10121000F4D1002010BD03F00F03043B0344197602
:101220001346EBE700ED00E000E100E008B5064BF7
:10123000044613B10021AFF30080044B1B6803B1D7
:101240009847204600F04AF80000000048120020AD
:1012500070B50D4D00260D4C641BA410A64209D19B
:101260000B4D00260B4C00F09BF8641BA410A6420B
:1012700005D170BD55F8043B01369847EEE755F8A7
:10128000043B01369847F2E70812002008120020BC
:10129000081200200C12002008B500F051F8FFF7EA
:1012A00033FF00F02BF9002008BD704770477047EE
:1012B0007047FEE710B53AB1002350F8234041F8DB
:1012C000234001339A42F8D110BD002070474FF4FB
:1012D000004070474FF47A707047FEE7FEE708B5AC
:1012E000FFF7E4F8BDE808400021FFF7A1BA0029A4
:1012F000CCBF01210021FFF79BBA02214FF42070DF
:10130000FFF752BD10B5FFF7BFF80446FFF7F2F83C
:10131000C0F102012046FFF7EAFF01210020FFF79C
:1013200045FEFFF7D3FDBDE81040FFF773BBEFF3B9
:10133000108072B6704700B962B670477047704748
:1013400008B5FEF7E9FFFFF7B0FFFFF7AFFFFFF7C4
:10135000AEFFBDE80840FFF7ABBF0244034693422F
:1013600000D1704703F8011BF9E70A44431E91427C
:1013700000D1704710B511F8014B914203F8014FAD
:10138000F9D110BD000000000000000000000000C6
:10139000000000000000000000000000000000004D
:1013A000F8B500BFF8BC08BC9E467047F8B500BF52
:1013B000F8BC08BC9E46704700000000000000001A
:1013C000000000000000000000000000000000001D
:1013D000000000000000000000000000000000000D
:1013E0002E2E2F6765636B6F5F73646B5F342E34D3
:1013F0002E312F706C6174666F726D2F656D6C6924
:10140000622F7372632F656D5F636D752E63002E9F
:101410002E2F6765636B6F5F73646B5F342E342EA2
:10142000312F706C6174666F726D2F656D6C6962BF
:101430002F7372632F656D5F656D752E63002E2EA1
:101440002F6765636B6F5F73646B5F342E342E316F
:101450002F706C6174666F726D2F656D6C69622F91
:101460007372632F656D5F6D73632E6300010304F8
:1014700001010109030000000B0000000B00000047
:101480000200000000002020000000000300000017
:101490008C8C3C00000000000000000000000000F8
:1014A00038B54FF40054104D204600F079F8EB6940
:1014B000DA07FCD404F50054B4F5203FF4D14FF41E
:1014C0000054094D04F518314FF4005220462031E4
:1014D00000F06AF8EB69DB07FCD404F50054B4F5BE
:1014E000203FEFD138BD00BF000003504FF4203340
:1014F0001878A0F1FF0358425841704738B5234C83
:1015000020224FF420312046FFF72FFFE369626865
:101510001BBAE361236812BA1BBA2360A368626036
:101520001BBAA360E3681BBAE36023691BBA23619B
:1015300063691BBA6361A3691BBAA361FFF7D6FF96
:101540000546F8B901461248FEF780FEA3688342BB
:1015500018D129464FF400506268FEF777FEA36861
:1015600083420FD06068FFF79BFFBFF34F8F09499D
:10157000094BCA6802F4E0621343CB60BFF34F8F9C
:1015800000BFFDE700F0DCBD38BD00BF2812002021
:101590002080020000ED00E00400FA05704700BF63
:1015A0005FF800F0A51000205FF800F06111002046
:0815B00020ECFF7F01000000A8
:0C15B800C415000000100020840000009A
:1015C400C0EA2101C0EA21010080000000F04902C4
:1015D400FFFF0000F0B5114A114C124E00F0010556
:1015E400E3695F0713D40DB9334213D103EA00074B
:1015F4008F4207D10B4A1A40002A0CBF00206FF01B
:101604000100F0BD013AEBD16FF00200F9E74FF0B1
:10161400FF30F6E76FF00100F3E700BF8096980013
:10162400000003500200010070B50B4BD96911F49E
:1016340080310DD101244FF48072084E084DF460BE
:1016440020462C641A61FFF7C5FF3464EC6070BD5A
:101654006FF00100FBE700BF0000035000100350CF
:101664000020035070B5C0F30C03054623B14FF4BA
:101674000671114800F0A4F84FF400320F4B104CDF
:101684009A6641F671330122E669E3630D4B00214A
:10169400DA60022365612120236106F48036FFF7B6
:1016A40099FF10B92120FFF795FF0122064BDA605C
:1016B4000EB10023E36370BD3E140000009000509F
:1016C40000000350001003500020035070B5134C69
:1016D4006061E3695B071ED40E4656F8043B8D181F
:1016E400A361AE420BD10423002121202361FFF723
:1016F40071FF58B9BDE870402120FFF76BBF082186
:101704000846FFF767FF10B10423236170BD56F844
:10171400043BA361E5E74FF0FF30F7E70000035017
:101724002DE9F843154682070F46064604D04FF4C8
:1017340019711E4800F044F8AB0704D040F266214A
:101744001A4800F03DF84FF40032194BDFF8689066
:101754009A6603F51C33DA6902F4803841F6713273
:10176400DA63012203F58053DA6065B92846012261
:10177400104BDA60B8F1000F03D00022A3F5005338
:10178400DA63BDE8F88306F5005404EA0904A41BEF
:10179400AC4228BF2C46394622463046FFF796FF16
:1017A4000028E4D1264427442D1BDEE73E14000024
:1017B400009000500020035000E0FFFF00000000F4
:1017C4005FF800F0DB120000AD01000085010000AD
:040000030000038175
:00000001FF
